{
  "abi": [
    {
      "constant": true,
      "inputs": [],
      "name": "name",
      "outputs": [
        {
          "name": "",
          "type": "string"
        }
      ],
      "payable": false,
      "stateMutability": "view",
      "type": "function"
    },
    {
      "constant": false,
      "inputs": [
        {
          "name": "spender",
          "type": "address"
        },
        {
          "name": "value",
          "type": "uint256"
        }
      ],
      "name": "approve",
      "outputs": [
        {
          "name": "",
          "type": "bool"
        }
      ],
      "payable": false,
      "stateMutability": "nonpayable",
      "type": "function"
    },
    {
      "constant": true,
      "inputs": [
        {
          "name": "fragments",
          "type": "uint256"
        }
      ],
      "name": "fragmentsToShares",
      "outputs": [
        {
          "name": "",
          "type": "uint256"
        }
      ],
      "payable": false,
      "stateMutability": "view",
      "type": "function"
    },
    {
      "constant": false,
      "inputs": [
        {
          "name": "name",
          "type": "string"
        },
        {
          "name": "symbol",
          "type": "string"
        },
        {
          "name": "decimals",
          "type": "uint8"
        }
      ],
      "name": "initialize",
      "outputs": [],
      "payable": false,
      "stateMutability": "nonpayable",
      "type": "function"
    },
    {
      "constant": true,
      "inputs": [],
      "name": "totalSupply",
      "outputs": [
        {
          "name": "",
          "type": "uint256"
        }
      ],
      "payable": false,
      "stateMutability": "view",
      "type": "function"
    },
    {
      "constant": false,
      "inputs": [
        {
          "name": "from",
          "type": "address"
        },
        {
          "name": "to",
          "type": "address"
        },
        {
          "name": "value",
          "type": "uint256"
        }
      ],
      "name": "transferFrom",
      "outputs": [
        {
          "name": "",
          "type": "bool"
        }
      ],
      "payable": false,
      "stateMutability": "nonpayable",
      "type": "function"
    },
    {
      "constant": true,
      "inputs": [],
      "name": "decimals",
      "outputs": [
        {
          "name": "",
          "type": "uint8"
        }
      ],
      "payable": false,
      "stateMutability": "view",
      "type": "function"
    },
    {
      "constant": false,
      "inputs": [
        {
          "name": "spender",
          "type": "address"
        },
        {
          "name": "addedValue",
          "type": "uint256"
        }
      ],
      "name": "increaseAllowance",
      "outputs": [
        {
          "name": "",
          "type": "bool"
        }
      ],
      "payable": false,
      "stateMutability": "nonpayable",
      "type": "function"
    },
    {
      "constant": true,
      "inputs": [],
      "name": "totalShares",
      "outputs": [
        {
          "name": "",
          "type": "uint256"
        }
      ],
      "payable": false,
      "stateMutability": "view",
      "type": "function"
    },
    {
      "constant": true,
      "inputs": [
        {
          "name": "shares",
          "type": "uint256"
        }
      ],
      "name": "sharesToFragments",
      "outputs": [
        {
          "name": "",
          "type": "uint256"
        }
      ],
      "payable": false,
      "stateMutability": "view",
      "type": "function"
    },
    {
      "constant": true,
      "inputs": [],
      "name": "_sharesPerFragment",
      "outputs": [
        {
          "name": "",
          "type": "uint256"
        }
      ],
      "payable": false,
      "stateMutability": "view",
      "type": "function"
    },
    {
      "constant": true,
      "inputs": [
        {
          "name": "shares",
          "type": "uint256"
        }
      ],
      "name": "sharesToScaledShares",
      "outputs": [
        {
          "name": "",
          "type": "uint256"
        }
      ],
      "payable": false,
      "stateMutability": "view",
      "type": "function"
    },
    {
      "constant": true,
      "inputs": [
        {
          "name": "who",
          "type": "address"
        }
      ],
      "name": "balanceOf",
      "outputs": [
        {
          "name": "",
          "type": "uint256"
        }
      ],
      "payable": false,
      "stateMutability": "view",
      "type": "function"
    },
    {
      "constant": false,
      "inputs": [],
      "name": "renounceOwnership",
      "outputs": [],
      "payable": false,
      "stateMutability": "nonpayable",
      "type": "function"
    },
    {
      "constant": false,
      "inputs": [
        {
          "name": "epoch",
          "type": "uint256"
        },
        {
          "name": "supplyDelta",
          "type": "int256"
        }
      ],
      "name": "rebase",
      "outputs": [
        {
          "name": "",
          "type": "uint256"
        }
      ],
      "payable": false,
      "stateMutability": "nonpayable",
      "type": "function"
    },
    {
      "constant": false,
      "inputs": [
        {
          "name": "monetaryPolicy_",
          "type": "address"
        }
      ],
      "name": "setMonetaryPolicy",
      "outputs": [],
      "payable": false,
      "stateMutability": "nonpayable",
      "type": "function"
    },
    {
      "constant": true,
      "inputs": [],
      "name": "owner",
      "outputs": [
        {
          "name": "",
          "type": "address"
        }
      ],
      "payable": false,
      "stateMutability": "view",
      "type": "function"
    },
    {
      "constant": true,
      "inputs": [],
      "name": "monetaryPolicy",
      "outputs": [
        {
          "name": "",
          "type": "address"
        }
      ],
      "payable": false,
      "stateMutability": "view",
      "type": "function"
    },
    {
      "constant": true,
      "inputs": [],
      "name": "isOwner",
      "outputs": [
        {
          "name": "",
          "type": "bool"
        }
      ],
      "payable": false,
      "stateMutability": "view",
      "type": "function"
    },
    {
      "constant": true,
      "inputs": [],
      "name": "symbol",
      "outputs": [
        {
          "name": "",
          "type": "string"
        }
      ],
      "payable": false,
      "stateMutability": "view",
      "type": "function"
    },
    {
      "constant": false,
      "inputs": [
        {
          "name": "spender",
          "type": "address"
        },
        {
          "name": "subtractedValue",
          "type": "uint256"
        }
      ],
      "name": "decreaseAllowance",
      "outputs": [
        {
          "name": "",
          "type": "bool"
        }
      ],
      "payable": false,
      "stateMutability": "nonpayable",
      "type": "function"
    },
    {
      "constant": false,
      "inputs": [
        {
          "name": "to",
          "type": "address"
        },
        {
          "name": "value",
          "type": "uint256"
        }
      ],
      "name": "transfer",
      "outputs": [
        {
          "name": "",
          "type": "bool"
        }
      ],
      "payable": false,
      "stateMutability": "nonpayable",
      "type": "function"
    },
    {
      "constant": true,
      "inputs": [],
      "name": "rebaseStartTime",
      "outputs": [
        {
          "name": "",
          "type": "uint256"
        }
      ],
      "payable": false,
      "stateMutability": "view",
      "type": "function"
    },
    {
      "constant": true,
      "inputs": [],
      "name": "_initialSharesPerFragment",
      "outputs": [
        {
          "name": "",
          "type": "uint256"
        }
      ],
      "payable": false,
      "stateMutability": "view",
      "type": "function"
    },
    {
      "constant": false,
      "inputs": [
        {
          "name": "owner_",
          "type": "address"
        }
      ],
      "name": "initialize",
      "outputs": [],
      "payable": false,
      "stateMutability": "nonpayable",
      "type": "function"
    },
    {
      "constant": true,
      "inputs": [
        {
          "name": "owner_",
          "type": "address"
        },
        {
          "name": "spender",
          "type": "address"
        }
      ],
      "name": "allowance",
      "outputs": [
        {
          "name": "",
          "type": "uint256"
        }
      ],
      "payable": false,
      "stateMutability": "view",
      "type": "function"
    },
    {
      "constant": false,
      "inputs": [
        {
          "name": "newOwner",
          "type": "address"
        }
      ],
      "name": "transferOwnership",
      "outputs": [],
      "payable": false,
      "stateMutability": "nonpayable",
      "type": "function"
    },
    {
      "constant": true,
      "inputs": [
        {
          "name": "who",
          "type": "address"
        }
      ],
      "name": "sharesOf",
      "outputs": [
        {
          "name": "",
          "type": "uint256"
        }
      ],
      "payable": false,
      "stateMutability": "view",
      "type": "function"
    },
    {
      "constant": true,
      "inputs": [
        {
          "name": "fragments",
          "type": "uint256"
        }
      ],
      "name": "scaledSharesToShares",
      "outputs": [
        {
          "name": "",
          "type": "uint256"
        }
      ],
      "payable": false,
      "stateMutability": "view",
      "type": "function"
    },
    {
      "anonymous": false,
      "inputs": [
        {
          "indexed": true,
          "name": "epoch",
          "type": "uint256"
        },
        {
          "indexed": false,
          "name": "totalSupply",
          "type": "uint256"
        }
      ],
      "name": "LogRebase",
      "type": "event"
    },
    {
      "anonymous": false,
      "inputs": [
        {
          "indexed": false,
          "name": "monetaryPolicy",
          "type": "address"
        }
      ],
      "name": "LogMonetaryPolicyUpdated",
      "type": "event"
    },
    {
      "anonymous": false,
      "inputs": [
        {
          "indexed": true,
          "name": "previousOwner",
          "type": "address"
        }
      ],
      "name": "OwnershipRenounced",
      "type": "event"
    },
    {
      "anonymous": false,
      "inputs": [
        {
          "indexed": true,
          "name": "previousOwner",
          "type": "address"
        },
        {
          "indexed": true,
          "name": "newOwner",
          "type": "address"
        }
      ],
      "name": "OwnershipTransferred",
      "type": "event"
    },
    {
      "anonymous": false,
      "inputs": [
        {
          "indexed": true,
          "name": "from",
          "type": "address"
        },
        {
          "indexed": true,
          "name": "to",
          "type": "address"
        },
        {
          "indexed": false,
          "name": "value",
          "type": "uint256"
        }
      ],
      "name": "Transfer",
      "type": "event"
    },
    {
      "anonymous": false,
      "inputs": [
        {
          "indexed": true,
          "name": "owner",
          "type": "address"
        },
        {
          "indexed": true,
          "name": "spender",
          "type": "address"
        },
        {
          "indexed": false,
          "name": "value",
          "type": "uint256"
        }
      ],
      "name": "Approval",
      "type": "event"
    }
  ],
  "bytecode": "608060405234801561001057600080fd5b5061154f806100206000396000f3006080604052600436106101745763ffffffff7c010000000000000000000000000000000000000000000000000000000060003504166306fdde038114610179578063095ea7b31461020357806313ca42e81461023b5780631624f6c61461026557806318160ddd1461030357806323b872dd14610318578063313ce56714610342578063395093511461036d5780633a98ef39146103915780635d2dde1d146103a65780636f97854c146103be5780636fafb236146103d357806370a08231146103eb578063715018a61461040c5780637a43e23f146104215780638b5a6a081461043c5780638da5cb5b1461045d5780638e27d7d71461048e5780638f32d59b146104a357806395d89b41146104b8578063a457c2d7146104cd578063a9059cbb146104f1578063b8fd8e7314610515578063bc02f3f71461052a578063c4d66de81461053f578063dd62ed3e14610560578063f2fde38b14610587578063f5eb42dc146105a8578063fb334b55146105c9575b600080fd5b34801561018557600080fd5b5061018e6105e1565b6040805160208082528351818301528351919283929083019185019080838360005b838110156101c85781810151838201526020016101b0565b50505050905090810190601f1680156101f55780820380516001836020036101000a031916815260200191505b509250505060405180910390f35b34801561020f57600080fd5b50610227600160a060020a0360043516602435610678565b604080519115158252519081900360200190f35b34801561024757600080fd5b506102536004356106df565b60408051918252519081900360200190f35b34801561027157600080fd5b506040805160206004803580820135601f810184900484028501840190955284845261030194369492936024939284019190819084018382808284375050604080516020601f89358b018035918201839004830284018301909452808352979a9998810197919650918201945092508291508401838280828437509497505050923560ff1693506106fe92505050565b005b34801561030f57600080fd5b50610253610837565b34801561032457600080fd5b50610227600160a060020a036004358116906024351660443561083d565b34801561034e57600080fd5b5061035761099c565b6040805160ff9092168252519081900360200190f35b34801561037957600080fd5b50610227600160a060020a03600435166024356109a5565b34801561039d57600080fd5b50610253610a3e565b3480156103b257600080fd5b50610253600435610a49565b3480156103ca57600080fd5b50610253610a6e565b3480156103df57600080fd5b50610253600435610a74565b3480156103f757600080fd5b50610253600160a060020a0360043516610aaf565b34801561041857600080fd5b50610301610add565b34801561042d57600080fd5b50610253600435602435610b47565b34801561044857600080fd5b50610301600160a060020a0360043516610c92565b34801561046957600080fd5b50610472610d06565b60408051600160a060020a039092168252519081900360200190f35b34801561049a57600080fd5b50610472610d15565b3480156104af57600080fd5b50610227610d24565b3480156104c457600080fd5b5061018e610d35565b3480156104d957600080fd5b50610227600160a060020a0360043516602435610d96565b3480156104fd57600080fd5b50610227600160a060020a0360043516602435610e87565b34801561052157600080fd5b50610253610f7f565b34801561053657600080fd5b50610253610f85565b34801561054b57600080fd5b50610301600160a060020a0360043516610f8b565b34801561056c57600080fd5b50610253600160a060020a03600435811690602435166111ad565b34801561059357600080fd5b50610301600160a060020a03600435166111d8565b3480156105b457600080fd5b50610253600160a060020a03600435166111f7565b3480156105d557600080fd5b50610253600435611212565b60338054604080516020601f600260001961010060018816150201909516949094049384018190048102820181019092528281526060939092909183018282801561066d5780601f106106425761010080835404028352916020019161066d565b820191906000526020600020905b81548152906001019060200180831161065057829003601f168201915b505050505090505b90565b33600081815260a260209081526040808320600160a060020a038716808552908352818420869055815186815291519394909390927f8c5be1e5ebec7d5bd14f71427d1e84f3dd0314c0f7b2291e5b200ac8c7c3b925928290030190a35060015b92915050565b60006106f6609f548361123190919063ffffffff16565b90505b919050565b60008054610100900460ff16806107185750610718611266565b80610726575060005460ff16155b15156107b957604080517f08c379a000000000000000000000000000000000000000000000000000000000815260206004820152602e60248201527f436f6e747261637420696e7374616e63652068617320616c726561647920626560448201527f656e20696e697469616c697a6564000000000000000000000000000000000000606482015290519081900360840190fd5b5060008054600161010061ff00198316811760ff191691909117909255845191900460ff16906107f0906033906020870190611495565b508251610804906034906020860190611495565b506035805460ff90931660ff1990931692909217909155600080549115156101000261ff00199092169190911790555050565b609e5490565b60008083600160a060020a038116151561085657600080fd5b600160a060020a03811630141561086c57600080fd5b600160a060020a038616600090815260a2602090815260408083203384529091529020546108a0908563ffffffff61127016565b600160a060020a038716600090815260a260209081526040808320338452909152902055609f546108d890859063ffffffff61123116565b600160a060020a038716600090815260a16020526040902054909250610904908363ffffffff61127016565b600160a060020a03808816600090815260a160205260408082209390935590871681522054610939908363ffffffff61128716565b600160a060020a03808716600081815260a1602090815260409182902094909455805188815290519193928a16927fddf252ad1be2c89b69c2b068fc378daa952ba7f163c4a11628f55a4df523b3ef92918290030190a350600195945050505050565b60355460ff1690565b33600090815260a260209081526040808320600160a060020a03861684529091528120546109d9908363ffffffff61128716565b33600081815260a260209081526040808320600160a060020a0389168085529083529281902085905580519485525191937f8c5be1e5ebec7d5bd14f71427d1e84f3dd0314c0f7b2291e5b200ac8c7c3b925929081900390910190a350600192915050565b65038f18b3bfff1990565b6000811515610a5a575060006106f9565b609f546106f690839063ffffffff61129916565b609f5481565b6000811515610a85575060006106f9565b60a0546106f690633b9aca0090610aa390859063ffffffff61129916565b9063ffffffff61123116565b609f54600160a060020a038216600090815260a1602052604081205490916106f6919063ffffffff61129916565b610ae5610d24565b1515610af057600080fd5b606854604051600160a060020a03909116907ff8df31144d9c2f0f6b59d69b8b98abd5459d07f2742c4df920b25aae33c6482090600090a26068805473ffffffffffffffffffffffffffffffffffffffff19169055565b609b54600090600160a060020a03163314610b6157600080fd5b609c54421015610b7057600080fd5b811515610bb857609e54604080519182525184917f72725a3b1e5bd622d6bcd1339bb31279c351abe8f541ac7fd320f24e1b1641f2919081900360200190a250609e546106d9565b6000821215610be457610bdc610bcd836112bc565b609e549063ffffffff61127016565b609e55610bfb565b609e54610bf7908363ffffffff61128716565b609e555b609e546fffffffffffffffffffffffffffffffff1015610c2a576fffffffffffffffffffffffffffffffff609e555b609e54610c4d906503a3529440006000195b06600019039063ffffffff61129916565b609f55609e54604080519182525184917f72725a3b1e5bd622d6bcd1339bb31279c351abe8f541ac7fd320f24e1b1641f2919081900360200190a250609e5492915050565b610c9a610d24565b1515610ca557600080fd5b609b8054600160a060020a03831673ffffffffffffffffffffffffffffffffffffffff19909116811790915560408051918252517f0e6961f1a1afb87eaf51fd64f22ddc10062e23aa7838eac5d0bdf140bfd389729181900360200190a150565b606854600160a060020a031690565b609b54600160a060020a031681565b606854600160a060020a0316331490565b60348054604080516020601f600260001961010060018816150201909516949094049384018190048102820181019092528281526060939092909183018282801561066d5780601f106106425761010080835404028352916020019161066d565b33600090815260a260209081526040808320600160a060020a0386168452909152812054808310610dea5733600090815260a260209081526040808320600160a060020a0388168452909152812055610e1f565b610dfa818463ffffffff61127016565b33600090815260a260209081526040808320600160a060020a03891684529091529020555b33600081815260a260209081526040808320600160a060020a0389168085529083529281902054815190815290519293927f8c5be1e5ebec7d5bd14f71427d1e84f3dd0314c0f7b2291e5b200ac8c7c3b925929181900390910190a3600191505b5092915050565b60008083600160a060020a0381161515610ea057600080fd5b600160a060020a038116301415610eb657600080fd5b609f54610eca90859063ffffffff61123116565b33600090815260a16020526040902054909250610eed908363ffffffff61127016565b33600090815260a1602052604080822092909255600160a060020a03871681522054610f1f908363ffffffff61128716565b600160a060020a038616600081815260a160209081526040918290209390935580518781529051919233927fddf252ad1be2c89b69c2b068fc378daa952ba7f163c4a11628f55a4df523b3ef9281900390910190a3506001949350505050565b609c5481565b60a05481565b60008054610100900460ff1680610fa55750610fa5611266565b80610fb3575060005460ff16155b151561104657604080517f08c379a000000000000000000000000000000000000000000000000000000000815260206004820152602e60248201527f436f6e747261637420696e7374616e63652068617320616c726561647920626560448201527f656e20696e697469616c697a6564000000000000000000000000000000000000606482015290519081900360840190fd5b5060008054600161010061ff00198316811760ff19169190911790925560408051808201825260048082527f446967670000000000000000000000000000000000000000000000000000000060208084019190915283518085019094529083527f4449474700000000000000000000000000000000000000000000000000000000908301529290910460ff16916110de9160096106fe565b6110e782611300565b6000609c819055609d805461ffff191690556503a352944000609e818155600160a060020a038516835260a1602052604090922065038f18b3bfff199055905461113391600019610c3c565b609f55609e5461114c906503a352944000600019610c3c565b60a055609e546040805191825251600160a060020a038416916000917fddf252ad1be2c89b69c2b068fc378daa952ba7f163c4a11628f55a4df523b3ef9181900360200190a3600080549115156101000261ff001990921691909117905550565b600160a060020a03918216600090815260a26020908152604080832093909416825291909152205490565b6111e0610d24565b15156111eb57600080fd5b6111f481611417565b50565b600160a060020a0316600090815260a1602052604090205490565b60006106f66009600a0a610aa360a0548561123190919063ffffffff16565b6000808315156112445760009150610e80565b5082820282848281151561125457fe5b041461125f57600080fd5b9392505050565b303b8015905b5090565b6000808383111561128057600080fd5b5050900390565b60008282018381101561125f57600080fd5b6000808083116112a857600080fd5b82848115156112b357fe5b04949350505050565b60007f80000000000000000000000000000000000000000000000000000000000000008214156112eb57600080fd5b600082126112f957816106f6565b5060000390565b60008054610100900460ff168061131a575061131a611266565b80611328575060005460ff16155b15156113bb57604080517f08c379a000000000000000000000000000000000000000000000000000000000815260206004820152602e60248201527f436f6e747261637420696e7374616e63652068617320616c726561647920626560448201527f656e20696e697469616c697a6564000000000000000000000000000000000000606482015290519081900360840190fd5b50600080546068805473ffffffffffffffffffffffffffffffffffffffff1916600160a060020a03949094169390931790925561ff001980831661010090811760ff19166001179091169281900460ff16151502919091179055565b600160a060020a038116151561142c57600080fd5b606854604051600160a060020a038084169216907f8be0079c531659141344cd1fd0a4f28419497f9722a3daafe3b4186f6b6457e090600090a36068805473ffffffffffffffffffffffffffffffffffffffff1916600160a060020a0392909216919091179055565b828054600181600116156101000203166002900490600052602060002090601f016020900481019282601f106114d657805160ff1916838001178555611503565b82800160010185558215611503579182015b828111156115035782518255916020019190600101906114e8565b5061126c926106759250905b8082111561126c576000815560010161150f5600a165627a7a72305820f5b519810c14f50b729ed6ca82437d6e95ace911e1cd34ba208dbe6aec9937c40029",
  "bytecodeSha1": "65d0224b07f45a34ecbc9558f710c5ab0f2b2dc5",
  "compiler": {
    "evm_version": "byzantium",
    "optimizer": {
      "enabled": true,
      "runs": 200
    },
    "version": "0.4.24+commit.e67f0147"
  },
  "contractName": "UFragments",
  "language": "Solidity",
  "natspec": {
    "methods": {
      "allowance(address,address)": {
        "details": "Function to check the amount of tokens that an owner has allowed to a spender.",
        "params": {
          "owner_": "The address which owns the funds.",
          "spender": "The address which will spend the funds."
        },
        "return": "The number of tokens still available for the spender."
      },
      "approve(address,uint256)": {
        "details": "Approve the passed address to spend the specified amount of tokens on behalf of msg.sender. This method is included for ERC20 compatibility. increaseAllowance and decreaseAllowance should be used instead. Changing an allowance with this method brings the risk that someone may transfer both the old and the new allowance - if they are both greater than zero - if a transfer transaction is mined before the later approve() call is mined.",
        "params": {
          "spender": "The address which will spend the funds.",
          "value": "The amount of tokens to be spent."
        }
      },
      "balanceOf(address)": {
        "params": {
          "who": "The address to query."
        },
        "return": "The balance of the specified address."
      },
      "decimals()": {
        "return": "the number of decimals of the token."
      },
      "decreaseAllowance(address,uint256)": {
        "details": "Decrease the amount of tokens that an owner has allowed to a spender.",
        "params": {
          "spender": "The address which will spend the funds.",
          "subtractedValue": "The amount of tokens to decrease the allowance by."
        }
      },
      "fragmentsToShares(uint256)": {
        "params": {
          "fragments": "Fragment value to convert."
        },
        "return": "The underlying share value of the specified fragment amount."
      },
      "increaseAllowance(address,uint256)": {
        "details": "Increase the amount of tokens that an owner has allowed to a spender. This method should be used instead of approve() to avoid the double approval vulnerability described above.",
        "params": {
          "addedValue": "The amount of tokens to increase the allowance by.",
          "spender": "The address which will spend the funds."
        }
      },
      "isOwner()": {
        "return": "true if `msg.sender` is the owner of the contract."
      },
      "name()": {
        "return": "the name of the token."
      },
      "owner()": {
        "return": "the address of the owner."
      },
      "rebase(uint256,int256)": {
        "details": "Notifies Fragments contract about a new rebase cycle.",
        "params": {
          "supplyDelta": "The number of new fragment tokens to add into circulation via expansion."
        },
        "return": "The total number of fragments after the supply adjustment."
      },
      "renounceOwnership()": {
        "details": "Allows the current owner to relinquish control of the contract.",
        "notice": "Renouncing to ownership will leave the contract without an owner. It will not be possible to call the functions with the `onlyOwner` modifier anymore."
      },
      "scaledSharesToShares(uint256)": {
        "details": "Scaled Shares are a user-friendly representation of shares"
      },
      "setMonetaryPolicy(address)": {
        "params": {
          "monetaryPolicy_": "The address of the monetary policy contract to use for authentication."
        }
      },
      "sharesOf(address)": {
        "params": {
          "who": "The address to query."
        },
        "return": "The underlying shares of the specified address."
      },
      "sharesToFragments(uint256)": {
        "params": {
          "shares": "Share value to convert."
        },
        "return": "The current fragment value of the specified underlying share amount."
      },
      "symbol()": {
        "return": "the symbol of the token."
      },
      "totalShares()": {
        "return": "The total number of underlying shares."
      },
      "totalSupply()": {
        "return": "The total number of fragments."
      },
      "transfer(address,uint256)": {
        "details": "Transfer tokens to a specified address.",
        "params": {
          "to": "The address to transfer to.",
          "value": "The amount to be transferred."
        },
        "return": "True on success, false otherwise."
      },
      "transferFrom(address,address,uint256)": {
        "details": "Transfer tokens from one address to another.",
        "params": {
          "from": "The address you want to send tokens from.",
          "to": "The address you want to transfer to.",
          "value": "The amount of tokens to be transferred."
        }
      },
      "transferOwnership(address)": {
        "details": "Allows the current owner to transfer control of the contract to a newOwner.",
        "params": {
          "newOwner": "The address to transfer ownership to."
        }
      }
    },
    "title": "uFragments ERC20 token"
  },
  "opcodes": "PUSH1 0x80 PUSH1 0x40 MSTORE PUSH1 0x4 CALLDATASIZE LT PUSH2 0x174 JUMPI PUSH4 0xFFFFFFFF PUSH29 0x100000000000000000000000000000000000000000000000000000000 PUSH1 0x0 CALLDATALOAD DIV AND PUSH4 0x6FDDE03 DUP2 EQ PUSH2 0x179 JUMPI DUP1 PUSH4 0x95EA7B3 EQ PUSH2 0x203 JUMPI DUP1 PUSH4 0x13CA42E8 EQ PUSH2 0x23B JUMPI DUP1 PUSH4 0x1624F6C6 EQ PUSH2 0x265 JUMPI DUP1 PUSH4 0x18160DDD EQ PUSH2 0x303 JUMPI DUP1 PUSH4 0x23B872DD EQ PUSH2 0x318 JUMPI DUP1 PUSH4 0x313CE567 EQ PUSH2 0x342 JUMPI DUP1 PUSH4 0x39509351 EQ PUSH2 0x36D JUMPI DUP1 PUSH4 0x3A98EF39 EQ PUSH2 0x391 JUMPI DUP1 PUSH4 0x5D2DDE1D EQ PUSH2 0x3A6 JUMPI DUP1 PUSH4 0x6F97854C EQ PUSH2 0x3BE JUMPI DUP1 PUSH4 0x6FAFB236 EQ PUSH2 0x3D3 JUMPI DUP1 PUSH4 0x70A08231 EQ PUSH2 0x3EB JUMPI DUP1 PUSH4 0x715018A6 EQ PUSH2 0x40C JUMPI DUP1 PUSH4 0x7A43E23F EQ PUSH2 0x421 JUMPI DUP1 PUSH4 0x8B5A6A08 EQ PUSH2 0x43C JUMPI DUP1 PUSH4 0x8DA5CB5B EQ PUSH2 0x45D JUMPI DUP1 PUSH4 0x8E27D7D7 EQ PUSH2 0x48E JUMPI DUP1 PUSH4 0x8F32D59B EQ PUSH2 0x4A3 JUMPI DUP1 PUSH4 0x95D89B41 EQ PUSH2 0x4B8 JUMPI DUP1 PUSH4 0xA457C2D7 EQ PUSH2 0x4CD JUMPI DUP1 PUSH4 0xA9059CBB EQ PUSH2 0x4F1 JUMPI DUP1 PUSH4 0xB8FD8E73 EQ PUSH2 0x515 JUMPI DUP1 PUSH4 0xBC02F3F7 EQ PUSH2 0x52A JUMPI DUP1 PUSH4 0xC4D66DE8 EQ PUSH2 0x53F JUMPI DUP1 PUSH4 0xDD62ED3E EQ PUSH2 0x560 JUMPI DUP1 PUSH4 0xF2FDE38B EQ PUSH2 0x587 JUMPI DUP1 PUSH4 0xF5EB42DC EQ PUSH2 0x5A8 JUMPI DUP1 PUSH4 0xFB334B55 EQ PUSH2 0x5C9 JUMPI JUMPDEST PUSH1 0x0 DUP1 REVERT JUMPDEST CALLVALUE DUP1 ISZERO PUSH2 0x185 JUMPI PUSH1 0x0 DUP1 REVERT JUMPDEST POP PUSH2 0x18E PUSH2 0x5E1 JUMP JUMPDEST PUSH1 0x40 DUP1 MLOAD PUSH1 0x20 DUP1 DUP3 MSTORE DUP4 MLOAD DUP2 DUP4 ADD MSTORE DUP4 MLOAD SWAP2 SWAP3 DUP4 SWAP3 SWAP1 DUP4 ADD SWAP2 DUP6 ADD SWAP1 DUP1 DUP4 DUP4 PUSH1 0x0 JUMPDEST DUP4 DUP2 LT ISZERO PUSH2 0x1C8 JUMPI DUP2 DUP2 ADD MLOAD DUP4 DUP3 ADD MSTORE PUSH1 0x20 ADD PUSH2 0x1B0 JUMP JUMPDEST POP POP POP POP SWAP1 POP SWAP1 DUP2 ADD SWAP1 PUSH1 0x1F AND DUP1 ISZERO PUSH2 0x1F5 JUMPI DUP1 DUP3 SUB DUP1 MLOAD PUSH1 0x1 DUP4 PUSH1 0x20 SUB PUSH2 0x100 EXP SUB NOT AND DUP2 MSTORE PUSH1 0x20 ADD SWAP2 POP JUMPDEST POP SWAP3 POP POP POP PUSH1 0x40 MLOAD DUP1 SWAP2 SUB SWAP1 RETURN JUMPDEST CALLVALUE DUP1 ISZERO PUSH2 0x20F JUMPI PUSH1 0x0 DUP1 REVERT JUMPDEST POP PUSH2 0x227 PUSH1 0x1 PUSH1 0xA0 PUSH1 0x2 EXP SUB PUSH1 0x4 CALLDATALOAD AND PUSH1 0x24 CALLDATALOAD PUSH2 0x678 JUMP JUMPDEST PUSH1 0x40 DUP1 MLOAD SWAP2 ISZERO ISZERO DUP3 MSTORE MLOAD SWAP1 DUP2 SWAP1 SUB PUSH1 0x20 ADD SWAP1 RETURN JUMPDEST CALLVALUE DUP1 ISZERO PUSH2 0x247 JUMPI PUSH1 0x0 DUP1 REVERT JUMPDEST POP PUSH2 0x253 PUSH1 0x4 CALLDATALOAD PUSH2 0x6DF JUMP JUMPDEST PUSH1 0x40 DUP1 MLOAD SWAP2 DUP3 MSTORE MLOAD SWAP1 DUP2 SWAP1 SUB PUSH1 0x20 ADD SWAP1 RETURN JUMPDEST CALLVALUE DUP1 ISZERO PUSH2 0x271 JUMPI PUSH1 0x0 DUP1 REVERT JUMPDEST POP PUSH1 0x40 DUP1 MLOAD PUSH1 0x20 PUSH1 0x4 DUP1 CALLDATALOAD DUP1 DUP3 ADD CALLDATALOAD PUSH1 0x1F DUP2 ADD DUP5 SWAP1 DIV DUP5 MUL DUP6 ADD DUP5 ADD SWAP1 SWAP6 MSTORE DUP5 DUP5 MSTORE PUSH2 0x301 SWAP5 CALLDATASIZE SWAP5 SWAP3 SWAP4 PUSH1 0x24 SWAP4 SWAP3 DUP5 ADD SWAP2 SWAP1 DUP2 SWAP1 DUP5 ADD DUP4 DUP3 DUP1 DUP3 DUP5 CALLDATACOPY POP POP PUSH1 0x40 DUP1 MLOAD PUSH1 0x20 PUSH1 0x1F DUP10 CALLDATALOAD DUP12 ADD DUP1 CALLDATALOAD SWAP2 DUP3 ADD DUP4 SWAP1 DIV DUP4 MUL DUP5 ADD DUP4 ADD SWAP1 SWAP5 MSTORE DUP1 DUP4 MSTORE SWAP8 SWAP11 SWAP10 SWAP9 DUP2 ADD SWAP8 SWAP2 SWAP7 POP SWAP2 DUP3 ADD SWAP5 POP SWAP3 POP DUP3 SWAP2 POP DUP5 ADD DUP4 DUP3 DUP1 DUP3 DUP5 CALLDATACOPY POP SWAP5 SWAP8 POP POP POP SWAP3 CALLDATALOAD PUSH1 0xFF AND SWAP4 POP PUSH2 0x6FE SWAP3 POP POP POP JUMP JUMPDEST STOP JUMPDEST CALLVALUE DUP1 ISZERO PUSH2 0x30F JUMPI PUSH1 0x0 DUP1 REVERT JUMPDEST POP PUSH2 0x253 PUSH2 0x837 JUMP JUMPDEST CALLVALUE DUP1 ISZERO PUSH2 0x324 JUMPI PUSH1 0x0 DUP1 REVERT JUMPDEST POP PUSH2 0x227 PUSH1 0x1 PUSH1 0xA0 PUSH1 0x2 EXP SUB PUSH1 0x4 CALLDATALOAD DUP2 AND SWAP1 PUSH1 0x24 CALLDATALOAD AND PUSH1 0x44 CALLDATALOAD PUSH2 0x83D JUMP JUMPDEST CALLVALUE DUP1 ISZERO PUSH2 0x34E JUMPI PUSH1 0x0 DUP1 REVERT JUMPDEST POP PUSH2 0x357 PUSH2 0x99C JUMP JUMPDEST PUSH1 0x40 DUP1 MLOAD PUSH1 0xFF SWAP1 SWAP3 AND DUP3 MSTORE MLOAD SWAP1 DUP2 SWAP1 SUB PUSH1 0x20 ADD SWAP1 RETURN JUMPDEST CALLVALUE DUP1 ISZERO PUSH2 0x379 JUMPI PUSH1 0x0 DUP1 REVERT JUMPDEST POP PUSH2 0x227 PUSH1 0x1 PUSH1 0xA0 PUSH1 0x2 EXP SUB PUSH1 0x4 CALLDATALOAD AND PUSH1 0x24 CALLDATALOAD PUSH2 0x9A5 JUMP JUMPDEST CALLVALUE DUP1 ISZERO PUSH2 0x39D JUMPI PUSH1 0x0 DUP1 REVERT JUMPDEST POP PUSH2 0x253 PUSH2 0xA3E JUMP JUMPDEST CALLVALUE DUP1 ISZERO PUSH2 0x3B2 JUMPI PUSH1 0x0 DUP1 REVERT JUMPDEST POP PUSH2 0x253 PUSH1 0x4 CALLDATALOAD PUSH2 0xA49 JUMP JUMPDEST CALLVALUE DUP1 ISZERO PUSH2 0x3CA JUMPI PUSH1 0x0 DUP1 REVERT JUMPDEST POP PUSH2 0x253 PUSH2 0xA6E JUMP JUMPDEST CALLVALUE DUP1 ISZERO PUSH2 0x3DF JUMPI PUSH1 0x0 DUP1 REVERT JUMPDEST POP PUSH2 0x253 PUSH1 0x4 CALLDATALOAD PUSH2 0xA74 JUMP JUMPDEST CALLVALUE DUP1 ISZERO PUSH2 0x3F7 JUMPI PUSH1 0x0 DUP1 REVERT JUMPDEST POP PUSH2 0x253 PUSH1 0x1 PUSH1 0xA0 PUSH1 0x2 EXP SUB PUSH1 0x4 CALLDATALOAD AND PUSH2 0xAAF JUMP JUMPDEST CALLVALUE DUP1 ISZERO PUSH2 0x418 JUMPI PUSH1 0x0 DUP1 REVERT JUMPDEST POP PUSH2 0x301 PUSH2 0xADD JUMP JUMPDEST CALLVALUE DUP1 ISZERO PUSH2 0x42D JUMPI PUSH1 0x0 DUP1 REVERT JUMPDEST POP PUSH2 0x253 PUSH1 0x4 CALLDATALOAD PUSH1 0x24 CALLDATALOAD PUSH2 0xB47 JUMP JUMPDEST CALLVALUE DUP1 ISZERO PUSH2 0x448 JUMPI PUSH1 0x0 DUP1 REVERT JUMPDEST POP PUSH2 0x301 PUSH1 0x1 PUSH1 0xA0 PUSH1 0x2 EXP SUB PUSH1 0x4 CALLDATALOAD AND PUSH2 0xC92 JUMP JUMPDEST CALLVALUE DUP1 ISZERO PUSH2 0x469 JUMPI PUSH1 0x0 DUP1 REVERT JUMPDEST POP PUSH2 0x472 PUSH2 0xD06 JUMP JUMPDEST PUSH1 0x40 DUP1 MLOAD PUSH1 0x1 PUSH1 0xA0 PUSH1 0x2 EXP SUB SWAP1 SWAP3 AND DUP3 MSTORE MLOAD SWAP1 DUP2 SWAP1 SUB PUSH1 0x20 ADD SWAP1 RETURN JUMPDEST CALLVALUE DUP1 ISZERO PUSH2 0x49A JUMPI PUSH1 0x0 DUP1 REVERT JUMPDEST POP PUSH2 0x472 PUSH2 0xD15 JUMP JUMPDEST CALLVALUE DUP1 ISZERO PUSH2 0x4AF JUMPI PUSH1 0x0 DUP1 REVERT JUMPDEST POP PUSH2 0x227 PUSH2 0xD24 JUMP JUMPDEST CALLVALUE DUP1 ISZERO PUSH2 0x4C4 JUMPI PUSH1 0x0 DUP1 REVERT JUMPDEST POP PUSH2 0x18E PUSH2 0xD35 JUMP JUMPDEST CALLVALUE DUP1 ISZERO PUSH2 0x4D9 JUMPI PUSH1 0x0 DUP1 REVERT JUMPDEST POP PUSH2 0x227 PUSH1 0x1 PUSH1 0xA0 PUSH1 0x2 EXP SUB PUSH1 0x4 CALLDATALOAD AND PUSH1 0x24 CALLDATALOAD PUSH2 0xD96 JUMP JUMPDEST CALLVALUE DUP1 ISZERO PUSH2 0x4FD JUMPI PUSH1 0x0 DUP1 REVERT JUMPDEST POP PUSH2 0x227 PUSH1 0x1 PUSH1 0xA0 PUSH1 0x2 EXP SUB PUSH1 0x4 CALLDATALOAD AND PUSH1 0x24 CALLDATALOAD PUSH2 0xE87 JUMP JUMPDEST CALLVALUE DUP1 ISZERO PUSH2 0x521 JUMPI PUSH1 0x0 DUP1 REVERT JUMPDEST POP PUSH2 0x253 PUSH2 0xF7F JUMP JUMPDEST CALLVALUE DUP1 ISZERO PUSH2 0x536 JUMPI PUSH1 0x0 DUP1 REVERT JUMPDEST POP PUSH2 0x253 PUSH2 0xF85 JUMP JUMPDEST CALLVALUE DUP1 ISZERO PUSH2 0x54B JUMPI PUSH1 0x0 DUP1 REVERT JUMPDEST POP PUSH2 0x301 PUSH1 0x1 PUSH1 0xA0 PUSH1 0x2 EXP SUB PUSH1 0x4 CALLDATALOAD AND PUSH2 0xF8B JUMP JUMPDEST CALLVALUE DUP1 ISZERO PUSH2 0x56C JUMPI PUSH1 0x0 DUP1 REVERT JUMPDEST POP PUSH2 0x253 PUSH1 0x1 PUSH1 0xA0 PUSH1 0x2 EXP SUB PUSH1 0x4 CALLDATALOAD DUP2 AND SWAP1 PUSH1 0x24 CALLDATALOAD AND PUSH2 0x11AD JUMP JUMPDEST CALLVALUE DUP1 ISZERO PUSH2 0x593 JUMPI PUSH1 0x0 DUP1 REVERT JUMPDEST POP PUSH2 0x301 PUSH1 0x1 PUSH1 0xA0 PUSH1 0x2 EXP SUB PUSH1 0x4 CALLDATALOAD AND PUSH2 0x11D8 JUMP JUMPDEST CALLVALUE DUP1 ISZERO PUSH2 0x5B4 JUMPI PUSH1 0x0 DUP1 REVERT JUMPDEST POP PUSH2 0x253 PUSH1 0x1 PUSH1 0xA0 PUSH1 0x2 EXP SUB PUSH1 0x4 CALLDATALOAD AND PUSH2 0x11F7 JUMP JUMPDEST CALLVALUE DUP1 ISZERO PUSH2 0x5D5 JUMPI PUSH1 0x0 DUP1 REVERT JUMPDEST POP PUSH2 0x253 PUSH1 0x4 CALLDATALOAD PUSH2 0x1212 JUMP JUMPDEST PUSH1 0x33 DUP1 SLOAD PUSH1 0x40 DUP1 MLOAD PUSH1 0x20 PUSH1 0x1F PUSH1 0x2 PUSH1 0x0 NOT PUSH2 0x100 PUSH1 0x1 DUP9 AND ISZERO MUL ADD SWAP1 SWAP6 AND SWAP5 SWAP1 SWAP5 DIV SWAP4 DUP5 ADD DUP2 SWAP1 DIV DUP2 MUL DUP3 ADD DUP2 ADD SWAP1 SWAP3 MSTORE DUP3 DUP2 MSTORE PUSH1 0x60 SWAP4 SWAP1 SWAP3 SWAP1 SWAP2 DUP4 ADD DUP3 DUP3 DUP1 ISZERO PUSH2 0x66D JUMPI DUP1 PUSH1 0x1F LT PUSH2 0x642 JUMPI PUSH2 0x100 DUP1 DUP4 SLOAD DIV MUL DUP4 MSTORE SWAP2 PUSH1 0x20 ADD SWAP2 PUSH2 0x66D JUMP JUMPDEST DUP3 ADD SWAP2 SWAP1 PUSH1 0x0 MSTORE PUSH1 0x20 PUSH1 0x0 KECCAK256 SWAP1 JUMPDEST DUP2 SLOAD DUP2 MSTORE SWAP1 PUSH1 0x1 ADD SWAP1 PUSH1 0x20 ADD DUP1 DUP4 GT PUSH2 0x650 JUMPI DUP3 SWAP1 SUB PUSH1 0x1F AND DUP3 ADD SWAP2 JUMPDEST POP POP POP POP POP SWAP1 POP JUMPDEST SWAP1 JUMP JUMPDEST CALLER PUSH1 0x0 DUP2 DUP2 MSTORE PUSH1 0xA2 PUSH1 0x20 SWAP1 DUP2 MSTORE PUSH1 0x40 DUP1 DUP4 KECCAK256 PUSH1 0x1 PUSH1 0xA0 PUSH1 0x2 EXP SUB DUP8 AND DUP1 DUP6 MSTORE SWAP1 DUP4 MSTORE DUP2 DUP5 KECCAK256 DUP7 SWAP1 SSTORE DUP2 MLOAD DUP7 DUP2 MSTORE SWAP2 MLOAD SWAP4 SWAP5 SWAP1 SWAP4 SWAP1 SWAP3 PUSH32 0x8C5BE1E5EBEC7D5BD14F71427D1E84F3DD0314C0F7B2291E5B200AC8C7C3B925 SWAP3 DUP3 SWAP1 SUB ADD SWAP1 LOG3 POP PUSH1 0x1 JUMPDEST SWAP3 SWAP2 POP POP JUMP JUMPDEST PUSH1 0x0 PUSH2 0x6F6 PUSH1 0x9F SLOAD DUP4 PUSH2 0x1231 SWAP1 SWAP2 SWAP1 PUSH4 0xFFFFFFFF AND JUMP JUMPDEST SWAP1 POP JUMPDEST SWAP2 SWAP1 POP JUMP JUMPDEST PUSH1 0x0 DUP1 SLOAD PUSH2 0x100 SWAP1 DIV PUSH1 0xFF AND DUP1 PUSH2 0x718 JUMPI POP PUSH2 0x718 PUSH2 0x1266 JUMP JUMPDEST DUP1 PUSH2 0x726 JUMPI POP PUSH1 0x0 SLOAD PUSH1 0xFF AND ISZERO JUMPDEST ISZERO ISZERO PUSH2 0x7B9 JUMPI PUSH1 0x40 DUP1 MLOAD PUSH32 0x8C379A000000000000000000000000000000000000000000000000000000000 DUP2 MSTORE PUSH1 0x20 PUSH1 0x4 DUP3 ADD MSTORE PUSH1 0x2E PUSH1 0x24 DUP3 ADD MSTORE PUSH32 0x436F6E747261637420696E7374616E63652068617320616C7265616479206265 PUSH1 0x44 DUP3 ADD MSTORE PUSH32 0x656E20696E697469616C697A6564000000000000000000000000000000000000 PUSH1 0x64 DUP3 ADD MSTORE SWAP1 MLOAD SWAP1 DUP2 SWAP1 SUB PUSH1 0x84 ADD SWAP1 REVERT JUMPDEST POP PUSH1 0x0 DUP1 SLOAD PUSH1 0x1 PUSH2 0x100 PUSH2 0xFF00 NOT DUP4 AND DUP2 OR PUSH1 0xFF NOT AND SWAP2 SWAP1 SWAP2 OR SWAP1 SWAP3 SSTORE DUP5 MLOAD SWAP2 SWAP1 DIV PUSH1 0xFF AND SWAP1 PUSH2 0x7F0 SWAP1 PUSH1 0x33 SWAP1 PUSH1 0x20 DUP8 ADD SWAP1 PUSH2 0x1495 JUMP JUMPDEST POP DUP3 MLOAD PUSH2 0x804 SWAP1 PUSH1 0x34 SWAP1 PUSH1 0x20 DUP7 ADD SWAP1 PUSH2 0x1495 JUMP JUMPDEST POP PUSH1 0x35 DUP1 SLOAD PUSH1 0xFF SWAP1 SWAP4 AND PUSH1 0xFF NOT SWAP1 SWAP4 AND SWAP3 SWAP1 SWAP3 OR SWAP1 SWAP2 SSTORE PUSH1 0x0 DUP1 SLOAD SWAP2 ISZERO ISZERO PUSH2 0x100 MUL PUSH2 0xFF00 NOT SWAP1 SWAP3 AND SWAP2 SWAP1 SWAP2 OR SWAP1 SSTORE POP POP JUMP JUMPDEST PUSH1 0x9E SLOAD SWAP1 JUMP JUMPDEST PUSH1 0x0 DUP1 DUP4 PUSH1 0x1 PUSH1 0xA0 PUSH1 0x2 EXP SUB DUP2 AND ISZERO ISZERO PUSH2 0x856 JUMPI PUSH1 0x0 DUP1 REVERT JUMPDEST PUSH1 0x1 PUSH1 0xA0 PUSH1 0x2 EXP SUB DUP2 AND ADDRESS EQ ISZERO PUSH2 0x86C JUMPI PUSH1 0x0 DUP1 REVERT JUMPDEST PUSH1 0x1 PUSH1 0xA0 PUSH1 0x2 EXP SUB DUP7 AND PUSH1 0x0 SWAP1 DUP2 MSTORE PUSH1 0xA2 PUSH1 0x20 SWAP1 DUP2 MSTORE PUSH1 0x40 DUP1 DUP4 KECCAK256 CALLER DUP5 MSTORE SWAP1 SWAP2 MSTORE SWAP1 KECCAK256 SLOAD PUSH2 0x8A0 SWAP1 DUP6 PUSH4 0xFFFFFFFF PUSH2 0x1270 AND JUMP JUMPDEST PUSH1 0x1 PUSH1 0xA0 PUSH1 0x2 EXP SUB DUP8 AND PUSH1 0x0 SWAP1 DUP2 MSTORE PUSH1 0xA2 PUSH1 0x20 SWAP1 DUP2 MSTORE PUSH1 0x40 DUP1 DUP4 KECCAK256 CALLER DUP5 MSTORE SWAP1 SWAP2 MSTORE SWAP1 KECCAK256 SSTORE PUSH1 0x9F SLOAD PUSH2 0x8D8 SWAP1 DUP6 SWAP1 PUSH4 0xFFFFFFFF PUSH2 0x1231 AND JUMP JUMPDEST PUSH1 0x1 PUSH1 0xA0 PUSH1 0x2 EXP SUB DUP8 AND PUSH1 0x0 SWAP1 DUP2 MSTORE PUSH1 0xA1 PUSH1 0x20 MSTORE PUSH1 0x40 SWAP1 KECCAK256 SLOAD SWAP1 SWAP3 POP PUSH2 0x904 SWAP1 DUP4 PUSH4 0xFFFFFFFF PUSH2 0x1270 AND JUMP JUMPDEST PUSH1 0x1 PUSH1 0xA0 PUSH1 0x2 EXP SUB DUP1 DUP9 AND PUSH1 0x0 SWAP1 DUP2 MSTORE PUSH1 0xA1 PUSH1 0x20 MSTORE PUSH1 0x40 DUP1 DUP3 KECCAK256 SWAP4 SWAP1 SWAP4 SSTORE SWAP1 DUP8 AND DUP2 MSTORE KECCAK256 SLOAD PUSH2 0x939 SWAP1 DUP4 PUSH4 0xFFFFFFFF PUSH2 0x1287 AND JUMP JUMPDEST PUSH1 0x1 PUSH1 0xA0 PUSH1 0x2 EXP SUB DUP1 DUP8 AND PUSH1 0x0 DUP2 DUP2 MSTORE PUSH1 0xA1 PUSH1 0x20 SWAP1 DUP2 MSTORE PUSH1 0x40 SWAP2 DUP3 SWAP1 KECCAK256 SWAP5 SWAP1 SWAP5 SSTORE DUP1 MLOAD DUP9 DUP2 MSTORE SWAP1 MLOAD SWAP2 SWAP4 SWAP3 DUP11 AND SWAP3 PUSH32 0xDDF252AD1BE2C89B69C2B068FC378DAA952BA7F163C4A11628F55A4DF523B3EF SWAP3 SWAP2 DUP3 SWAP1 SUB ADD SWAP1 LOG3 POP PUSH1 0x1 SWAP6 SWAP5 POP POP POP POP POP JUMP JUMPDEST PUSH1 0x35 SLOAD PUSH1 0xFF AND SWAP1 JUMP JUMPDEST CALLER PUSH1 0x0 SWAP1 DUP2 MSTORE PUSH1 0xA2 PUSH1 0x20 SWAP1 DUP2 MSTORE PUSH1 0x40 DUP1 DUP4 KECCAK256 PUSH1 0x1 PUSH1 0xA0 PUSH1 0x2 EXP SUB DUP7 AND DUP5 MSTORE SWAP1 SWAP2 MSTORE DUP2 KECCAK256 SLOAD PUSH2 0x9D9 SWAP1 DUP4 PUSH4 0xFFFFFFFF PUSH2 0x1287 AND JUMP JUMPDEST CALLER PUSH1 0x0 DUP2 DUP2 MSTORE PUSH1 0xA2 PUSH1 0x20 SWAP1 DUP2 MSTORE PUSH1 0x40 DUP1 DUP4 KECCAK256 PUSH1 0x1 PUSH1 0xA0 PUSH1 0x2 EXP SUB DUP10 AND DUP1 DUP6 MSTORE SWAP1 DUP4 MSTORE SWAP3 DUP2 SWAP1 KECCAK256 DUP6 SWAP1 SSTORE DUP1 MLOAD SWAP5 DUP6 MSTORE MLOAD SWAP2 SWAP4 PUSH32 0x8C5BE1E5EBEC7D5BD14F71427D1E84F3DD0314C0F7B2291E5B200AC8C7C3B925 SWAP3 SWAP1 DUP2 SWAP1 SUB SWAP1 SWAP2 ADD SWAP1 LOG3 POP PUSH1 0x1 SWAP3 SWAP2 POP POP JUMP JUMPDEST PUSH6 0x38F18B3BFFF NOT SWAP1 JUMP JUMPDEST PUSH1 0x0 DUP2 ISZERO ISZERO PUSH2 0xA5A JUMPI POP PUSH1 0x0 PUSH2 0x6F9 JUMP JUMPDEST PUSH1 0x9F SLOAD PUSH2 0x6F6 SWAP1 DUP4 SWAP1 PUSH4 0xFFFFFFFF PUSH2 0x1299 AND JUMP JUMPDEST PUSH1 0x9F SLOAD DUP2 JUMP JUMPDEST PUSH1 0x0 DUP2 ISZERO ISZERO PUSH2 0xA85 JUMPI POP PUSH1 0x0 PUSH2 0x6F9 JUMP JUMPDEST PUSH1 0xA0 SLOAD PUSH2 0x6F6 SWAP1 PUSH4 0x3B9ACA00 SWAP1 PUSH2 0xAA3 SWAP1 DUP6 SWAP1 PUSH4 0xFFFFFFFF PUSH2 0x1299 AND JUMP JUMPDEST SWAP1 PUSH4 0xFFFFFFFF PUSH2 0x1231 AND JUMP JUMPDEST PUSH1 0x9F SLOAD PUSH1 0x1 PUSH1 0xA0 PUSH1 0x2 EXP SUB DUP3 AND PUSH1 0x0 SWAP1 DUP2 MSTORE PUSH1 0xA1 PUSH1 0x20 MSTORE PUSH1 0x40 DUP2 KECCAK256 SLOAD SWAP1 SWAP2 PUSH2 0x6F6 SWAP2 SWAP1 PUSH4 0xFFFFFFFF PUSH2 0x1299 AND JUMP JUMPDEST PUSH2 0xAE5 PUSH2 0xD24 JUMP JUMPDEST ISZERO ISZERO PUSH2 0xAF0 JUMPI PUSH1 0x0 DUP1 REVERT JUMPDEST PUSH1 0x68 SLOAD PUSH1 0x40 MLOAD PUSH1 0x1 PUSH1 0xA0 PUSH1 0x2 EXP SUB SWAP1 SWAP2 AND SWAP1 PUSH32 0xF8DF31144D9C2F0F6B59D69B8B98ABD5459D07F2742C4DF920B25AAE33C64820 SWAP1 PUSH1 0x0 SWAP1 LOG2 PUSH1 0x68 DUP1 SLOAD PUSH20 0xFFFFFFFFFFFFFFFFFFFFFFFFFFFFFFFFFFFFFFFF NOT AND SWAP1 SSTORE JUMP JUMPDEST PUSH1 0x9B SLOAD PUSH1 0x0 SWAP1 PUSH1 0x1 PUSH1 0xA0 PUSH1 0x2 EXP SUB AND CALLER EQ PUSH2 0xB61 JUMPI PUSH1 0x0 DUP1 REVERT JUMPDEST PUSH1 0x9C SLOAD TIMESTAMP LT ISZERO PUSH2 0xB70 JUMPI PUSH1 0x0 DUP1 REVERT JUMPDEST DUP2 ISZERO ISZERO PUSH2 0xBB8 JUMPI PUSH1 0x9E SLOAD PUSH1 0x40 DUP1 MLOAD SWAP2 DUP3 MSTORE MLOAD DUP5 SWAP2 PUSH32 0x72725A3B1E5BD622D6BCD1339BB31279C351ABE8F541AC7FD320F24E1B1641F2 SWAP2 SWAP1 DUP2 SWAP1 SUB PUSH1 0x20 ADD SWAP1 LOG2 POP PUSH1 0x9E SLOAD PUSH2 0x6D9 JUMP JUMPDEST PUSH1 0x0 DUP3 SLT ISZERO PUSH2 0xBE4 JUMPI PUSH2 0xBDC PUSH2 0xBCD DUP4 PUSH2 0x12BC JUMP JUMPDEST PUSH1 0x9E SLOAD SWAP1 PUSH4 0xFFFFFFFF PUSH2 0x1270 AND JUMP JUMPDEST PUSH1 0x9E SSTORE PUSH2 0xBFB JUMP JUMPDEST PUSH1 0x9E SLOAD PUSH2 0xBF7 SWAP1 DUP4 PUSH4 0xFFFFFFFF PUSH2 0x1287 AND JUMP JUMPDEST PUSH1 0x9E SSTORE JUMPDEST PUSH1 0x9E SLOAD PUSH16 0xFFFFFFFFFFFFFFFFFFFFFFFFFFFFFFFF LT ISZERO PUSH2 0xC2A JUMPI PUSH16 0xFFFFFFFFFFFFFFFFFFFFFFFFFFFFFFFF PUSH1 0x9E SSTORE JUMPDEST PUSH1 0x9E SLOAD PUSH2 0xC4D SWAP1 PUSH6 0x3A352944000 PUSH1 0x0 NOT JUMPDEST MOD PUSH1 0x0 NOT SUB SWAP1 PUSH4 0xFFFFFFFF PUSH2 0x1299 AND JUMP JUMPDEST PUSH1 0x9F SSTORE PUSH1 0x9E SLOAD PUSH1 0x40 DUP1 MLOAD SWAP2 DUP3 MSTORE MLOAD DUP5 SWAP2 PUSH32 0x72725A3B1E5BD622D6BCD1339BB31279C351ABE8F541AC7FD320F24E1B1641F2 SWAP2 SWAP1 DUP2 SWAP1 SUB PUSH1 0x20 ADD SWAP1 LOG2 POP PUSH1 0x9E SLOAD SWAP3 SWAP2 POP POP JUMP JUMPDEST PUSH2 0xC9A PUSH2 0xD24 JUMP JUMPDEST ISZERO ISZERO PUSH2 0xCA5 JUMPI PUSH1 0x0 DUP1 REVERT JUMPDEST PUSH1 0x9B DUP1 SLOAD PUSH1 0x1 PUSH1 0xA0 PUSH1 0x2 EXP SUB DUP4 AND PUSH20 0xFFFFFFFFFFFFFFFFFFFFFFFFFFFFFFFFFFFFFFFF NOT SWAP1 SWAP2 AND DUP2 OR SWAP1 SWAP2 SSTORE PUSH1 0x40 DUP1 MLOAD SWAP2 DUP3 MSTORE MLOAD PUSH32 0xE6961F1A1AFB87EAF51FD64F22DDC10062E23AA7838EAC5D0BDF140BFD38972 SWAP2 DUP2 SWAP1 SUB PUSH1 0x20 ADD SWAP1 LOG1 POP JUMP JUMPDEST PUSH1 0x68 SLOAD PUSH1 0x1 PUSH1 0xA0 PUSH1 0x2 EXP SUB AND SWAP1 JUMP JUMPDEST PUSH1 0x9B SLOAD PUSH1 0x1 PUSH1 0xA0 PUSH1 0x2 EXP SUB AND DUP2 JUMP JUMPDEST PUSH1 0x68 SLOAD PUSH1 0x1 PUSH1 0xA0 PUSH1 0x2 EXP SUB AND CALLER EQ SWAP1 JUMP JUMPDEST PUSH1 0x34 DUP1 SLOAD PUSH1 0x40 DUP1 MLOAD PUSH1 0x20 PUSH1 0x1F PUSH1 0x2 PUSH1 0x0 NOT PUSH2 0x100 PUSH1 0x1 DUP9 AND ISZERO MUL ADD SWAP1 SWAP6 AND SWAP5 SWAP1 SWAP5 DIV SWAP4 DUP5 ADD DUP2 SWAP1 DIV DUP2 MUL DUP3 ADD DUP2 ADD SWAP1 SWAP3 MSTORE DUP3 DUP2 MSTORE PUSH1 0x60 SWAP4 SWAP1 SWAP3 SWAP1 SWAP2 DUP4 ADD DUP3 DUP3 DUP1 ISZERO PUSH2 0x66D JUMPI DUP1 PUSH1 0x1F LT PUSH2 0x642 JUMPI PUSH2 0x100 DUP1 DUP4 SLOAD DIV MUL DUP4 MSTORE SWAP2 PUSH1 0x20 ADD SWAP2 PUSH2 0x66D JUMP JUMPDEST CALLER PUSH1 0x0 SWAP1 DUP2 MSTORE PUSH1 0xA2 PUSH1 0x20 SWAP1 DUP2 MSTORE PUSH1 0x40 DUP1 DUP4 KECCAK256 PUSH1 0x1 PUSH1 0xA0 PUSH1 0x2 EXP SUB DUP7 AND DUP5 MSTORE SWAP1 SWAP2 MSTORE DUP2 KECCAK256 SLOAD DUP1 DUP4 LT PUSH2 0xDEA JUMPI CALLER PUSH1 0x0 SWAP1 DUP2 MSTORE PUSH1 0xA2 PUSH1 0x20 SWAP1 DUP2 MSTORE PUSH1 0x40 DUP1 DUP4 KECCAK256 PUSH1 0x1 PUSH1 0xA0 PUSH1 0x2 EXP SUB DUP9 AND DUP5 MSTORE SWAP1 SWAP2 MSTORE DUP2 KECCAK256 SSTORE PUSH2 0xE1F JUMP JUMPDEST PUSH2 0xDFA DUP2 DUP5 PUSH4 0xFFFFFFFF PUSH2 0x1270 AND JUMP JUMPDEST CALLER PUSH1 0x0 SWAP1 DUP2 MSTORE PUSH1 0xA2 PUSH1 0x20 SWAP1 DUP2 MSTORE PUSH1 0x40 DUP1 DUP4 KECCAK256 PUSH1 0x1 PUSH1 0xA0 PUSH1 0x2 EXP SUB DUP10 AND DUP5 MSTORE SWAP1 SWAP2 MSTORE SWAP1 KECCAK256 SSTORE JUMPDEST CALLER PUSH1 0x0 DUP2 DUP2 MSTORE PUSH1 0xA2 PUSH1 0x20 SWAP1 DUP2 MSTORE PUSH1 0x40 DUP1 DUP4 KECCAK256 PUSH1 0x1 PUSH1 0xA0 PUSH1 0x2 EXP SUB DUP10 AND DUP1 DUP6 MSTORE SWAP1 DUP4 MSTORE SWAP3 DUP2 SWAP1 KECCAK256 SLOAD DUP2 MLOAD SWAP1 DUP2 MSTORE SWAP1 MLOAD SWAP3 SWAP4 SWAP3 PUSH32 0x8C5BE1E5EBEC7D5BD14F71427D1E84F3DD0314C0F7B2291E5B200AC8C7C3B925 SWAP3 SWAP2 DUP2 SWAP1 SUB SWAP1 SWAP2 ADD SWAP1 LOG3 PUSH1 0x1 SWAP2 POP JUMPDEST POP SWAP3 SWAP2 POP POP JUMP JUMPDEST PUSH1 0x0 DUP1 DUP4 PUSH1 0x1 PUSH1 0xA0 PUSH1 0x2 EXP SUB DUP2 AND ISZERO ISZERO PUSH2 0xEA0 JUMPI PUSH1 0x0 DUP1 REVERT JUMPDEST PUSH1 0x1 PUSH1 0xA0 PUSH1 0x2 EXP SUB DUP2 AND ADDRESS EQ ISZERO PUSH2 0xEB6 JUMPI PUSH1 0x0 DUP1 REVERT JUMPDEST PUSH1 0x9F SLOAD PUSH2 0xECA SWAP1 DUP6 SWAP1 PUSH4 0xFFFFFFFF PUSH2 0x1231 AND JUMP JUMPDEST CALLER PUSH1 0x0 SWAP1 DUP2 MSTORE PUSH1 0xA1 PUSH1 0x20 MSTORE PUSH1 0x40 SWAP1 KECCAK256 SLOAD SWAP1 SWAP3 POP PUSH2 0xEED SWAP1 DUP4 PUSH4 0xFFFFFFFF PUSH2 0x1270 AND JUMP JUMPDEST CALLER PUSH1 0x0 SWAP1 DUP2 MSTORE PUSH1 0xA1 PUSH1 0x20 MSTORE PUSH1 0x40 DUP1 DUP3 KECCAK256 SWAP3 SWAP1 SWAP3 SSTORE PUSH1 0x1 PUSH1 0xA0 PUSH1 0x2 EXP SUB DUP8 AND DUP2 MSTORE KECCAK256 SLOAD PUSH2 0xF1F SWAP1 DUP4 PUSH4 0xFFFFFFFF PUSH2 0x1287 AND JUMP JUMPDEST PUSH1 0x1 PUSH1 0xA0 PUSH1 0x2 EXP SUB DUP7 AND PUSH1 0x0 DUP2 DUP2 MSTORE PUSH1 0xA1 PUSH1 0x20 SWAP1 DUP2 MSTORE PUSH1 0x40 SWAP2 DUP3 SWAP1 KECCAK256 SWAP4 SWAP1 SWAP4 SSTORE DUP1 MLOAD DUP8 DUP2 MSTORE SWAP1 MLOAD SWAP2 SWAP3 CALLER SWAP3 PUSH32 0xDDF252AD1BE2C89B69C2B068FC378DAA952BA7F163C4A11628F55A4DF523B3EF SWAP3 DUP2 SWAP1 SUB SWAP1 SWAP2 ADD SWAP1 LOG3 POP PUSH1 0x1 SWAP5 SWAP4 POP POP POP POP JUMP JUMPDEST PUSH1 0x9C SLOAD DUP2 JUMP JUMPDEST PUSH1 0xA0 SLOAD DUP2 JUMP JUMPDEST PUSH1 0x0 DUP1 SLOAD PUSH2 0x100 SWAP1 DIV PUSH1 0xFF AND DUP1 PUSH2 0xFA5 JUMPI POP PUSH2 0xFA5 PUSH2 0x1266 JUMP JUMPDEST DUP1 PUSH2 0xFB3 JUMPI POP PUSH1 0x0 SLOAD PUSH1 0xFF AND ISZERO JUMPDEST ISZERO ISZERO PUSH2 0x1046 JUMPI PUSH1 0x40 DUP1 MLOAD PUSH32 0x8C379A000000000000000000000000000000000000000000000000000000000 DUP2 MSTORE PUSH1 0x20 PUSH1 0x4 DUP3 ADD MSTORE PUSH1 0x2E PUSH1 0x24 DUP3 ADD MSTORE PUSH32 0x436F6E747261637420696E7374616E63652068617320616C7265616479206265 PUSH1 0x44 DUP3 ADD MSTORE PUSH32 0x656E20696E697469616C697A6564000000000000000000000000000000000000 PUSH1 0x64 DUP3 ADD MSTORE SWAP1 MLOAD SWAP1 DUP2 SWAP1 SUB PUSH1 0x84 ADD SWAP1 REVERT JUMPDEST POP PUSH1 0x0 DUP1 SLOAD PUSH1 0x1 PUSH2 0x100 PUSH2 0xFF00 NOT DUP4 AND DUP2 OR PUSH1 0xFF NOT AND SWAP2 SWAP1 SWAP2 OR SWAP1 SWAP3 SSTORE PUSH1 0x40 DUP1 MLOAD DUP1 DUP3 ADD DUP3 MSTORE PUSH1 0x4 DUP1 DUP3 MSTORE PUSH32 0x4469676700000000000000000000000000000000000000000000000000000000 PUSH1 0x20 DUP1 DUP5 ADD SWAP2 SWAP1 SWAP2 MSTORE DUP4 MLOAD DUP1 DUP6 ADD SWAP1 SWAP5 MSTORE SWAP1 DUP4 MSTORE PUSH32 0x4449474700000000000000000000000000000000000000000000000000000000 SWAP1 DUP4 ADD MSTORE SWAP3 SWAP1 SWAP2 DIV PUSH1 0xFF AND SWAP2 PUSH2 0x10DE SWAP2 PUSH1 0x9 PUSH2 0x6FE JUMP JUMPDEST PUSH2 0x10E7 DUP3 PUSH2 0x1300 JUMP JUMPDEST PUSH1 0x0 PUSH1 0x9C DUP2 SWAP1 SSTORE PUSH1 0x9D DUP1 SLOAD PUSH2 0xFFFF NOT AND SWAP1 SSTORE PUSH6 0x3A352944000 PUSH1 0x9E DUP2 DUP2 SSTORE PUSH1 0x1 PUSH1 0xA0 PUSH1 0x2 EXP SUB DUP6 AND DUP4 MSTORE PUSH1 0xA1 PUSH1 0x20 MSTORE PUSH1 0x40 SWAP1 SWAP3 KECCAK256 PUSH6 0x38F18B3BFFF NOT SWAP1 SSTORE SWAP1 SLOAD PUSH2 0x1133 SWAP2 PUSH1 0x0 NOT PUSH2 0xC3C JUMP JUMPDEST PUSH1 0x9F SSTORE PUSH1 0x9E SLOAD PUSH2 0x114C SWAP1 PUSH6 0x3A352944000 PUSH1 0x0 NOT PUSH2 0xC3C JUMP JUMPDEST PUSH1 0xA0 SSTORE PUSH1 0x9E SLOAD PUSH1 0x40 DUP1 MLOAD SWAP2 DUP3 MSTORE MLOAD PUSH1 0x1 PUSH1 0xA0 PUSH1 0x2 EXP SUB DUP5 AND SWAP2 PUSH1 0x0 SWAP2 PUSH32 0xDDF252AD1BE2C89B69C2B068FC378DAA952BA7F163C4A11628F55A4DF523B3EF SWAP2 DUP2 SWAP1 SUB PUSH1 0x20 ADD SWAP1 LOG3 PUSH1 0x0 DUP1 SLOAD SWAP2 ISZERO ISZERO PUSH2 0x100 MUL PUSH2 0xFF00 NOT SWAP1 SWAP3 AND SWAP2 SWAP1 SWAP2 OR SWAP1 SSTORE POP JUMP JUMPDEST PUSH1 0x1 PUSH1 0xA0 PUSH1 0x2 EXP SUB SWAP2 DUP3 AND PUSH1 0x0 SWAP1 DUP2 MSTORE PUSH1 0xA2 PUSH1 0x20 SWAP1 DUP2 MSTORE PUSH1 0x40 DUP1 DUP4 KECCAK256 SWAP4 SWAP1 SWAP5 AND DUP3 MSTORE SWAP2 SWAP1 SWAP2 MSTORE KECCAK256 SLOAD SWAP1 JUMP JUMPDEST PUSH2 0x11E0 PUSH2 0xD24 JUMP JUMPDEST ISZERO ISZERO PUSH2 0x11EB JUMPI PUSH1 0x0 DUP1 REVERT JUMPDEST PUSH2 0x11F4 DUP2 PUSH2 0x1417 JUMP JUMPDEST POP JUMP JUMPDEST PUSH1 0x1 PUSH1 0xA0 PUSH1 0x2 EXP SUB AND PUSH1 0x0 SWAP1 DUP2 MSTORE PUSH1 0xA1 PUSH1 0x20 MSTORE PUSH1 0x40 SWAP1 KECCAK256 SLOAD SWAP1 JUMP JUMPDEST PUSH1 0x0 PUSH2 0x6F6 PUSH1 0x9 PUSH1 0xA EXP PUSH2 0xAA3 PUSH1 0xA0 SLOAD DUP6 PUSH2 0x1231 SWAP1 SWAP2 SWAP1 PUSH4 0xFFFFFFFF AND JUMP JUMPDEST PUSH1 0x0 DUP1 DUP4 ISZERO ISZERO PUSH2 0x1244 JUMPI PUSH1 0x0 SWAP2 POP PUSH2 0xE80 JUMP JUMPDEST POP DUP3 DUP3 MUL DUP3 DUP5 DUP3 DUP2 ISZERO ISZERO PUSH2 0x1254 JUMPI INVALID JUMPDEST DIV EQ PUSH2 0x125F JUMPI PUSH1 0x0 DUP1 REVERT JUMPDEST SWAP4 SWAP3 POP POP POP JUMP JUMPDEST ADDRESS EXTCODESIZE DUP1 ISZERO SWAP1 JUMPDEST POP SWAP1 JUMP JUMPDEST PUSH1 0x0 DUP1 DUP4 DUP4 GT ISZERO PUSH2 0x1280 JUMPI PUSH1 0x0 DUP1 REVERT JUMPDEST POP POP SWAP1 SUB SWAP1 JUMP JUMPDEST PUSH1 0x0 DUP3 DUP3 ADD DUP4 DUP2 LT ISZERO PUSH2 0x125F JUMPI PUSH1 0x0 DUP1 REVERT JUMPDEST PUSH1 0x0 DUP1 DUP1 DUP4 GT PUSH2 0x12A8 JUMPI PUSH1 0x0 DUP1 REVERT JUMPDEST DUP3 DUP5 DUP2 ISZERO ISZERO PUSH2 0x12B3 JUMPI INVALID JUMPDEST DIV SWAP5 SWAP4 POP POP POP POP JUMP JUMPDEST PUSH1 0x0 PUSH32 0x8000000000000000000000000000000000000000000000000000000000000000 DUP3 EQ ISZERO PUSH2 0x12EB JUMPI PUSH1 0x0 DUP1 REVERT JUMPDEST PUSH1 0x0 DUP3 SLT PUSH2 0x12F9 JUMPI DUP2 PUSH2 0x6F6 JUMP JUMPDEST POP PUSH1 0x0 SUB SWAP1 JUMP JUMPDEST PUSH1 0x0 DUP1 SLOAD PUSH2 0x100 SWAP1 DIV PUSH1 0xFF AND DUP1 PUSH2 0x131A JUMPI POP PUSH2 0x131A PUSH2 0x1266 JUMP JUMPDEST DUP1 PUSH2 0x1328 JUMPI POP PUSH1 0x0 SLOAD PUSH1 0xFF AND ISZERO JUMPDEST ISZERO ISZERO PUSH2 0x13BB JUMPI PUSH1 0x40 DUP1 MLOAD PUSH32 0x8C379A000000000000000000000000000000000000000000000000000000000 DUP2 MSTORE PUSH1 0x20 PUSH1 0x4 DUP3 ADD MSTORE PUSH1 0x2E PUSH1 0x24 DUP3 ADD MSTORE PUSH32 0x436F6E747261637420696E7374616E63652068617320616C7265616479206265 PUSH1 0x44 DUP3 ADD MSTORE PUSH32 0x656E20696E697469616C697A6564000000000000000000000000000000000000 PUSH1 0x64 DUP3 ADD MSTORE SWAP1 MLOAD SWAP1 DUP2 SWAP1 SUB PUSH1 0x84 ADD SWAP1 REVERT JUMPDEST POP PUSH1 0x0 DUP1 SLOAD PUSH1 0x68 DUP1 SLOAD PUSH20 0xFFFFFFFFFFFFFFFFFFFFFFFFFFFFFFFFFFFFFFFF NOT AND PUSH1 0x1 PUSH1 0xA0 PUSH1 0x2 EXP SUB SWAP5 SWAP1 SWAP5 AND SWAP4 SWAP1 SWAP4 OR SWAP1 SWAP3 SSTORE PUSH2 0xFF00 NOT DUP1 DUP4 AND PUSH2 0x100 SWAP1 DUP2 OR PUSH1 0xFF NOT AND PUSH1 0x1 OR SWAP1 SWAP2 AND SWAP3 DUP2 SWAP1 DIV PUSH1 0xFF AND ISZERO ISZERO MUL SWAP2 SWAP1 SWAP2 OR SWAP1 SSTORE JUMP JUMPDEST PUSH1 0x1 PUSH1 0xA0 PUSH1 0x2 EXP SUB DUP2 AND ISZERO ISZERO PUSH2 0x142C JUMPI PUSH1 0x0 DUP1 REVERT JUMPDEST PUSH1 0x68 SLOAD PUSH1 0x40 MLOAD PUSH1 0x1 PUSH1 0xA0 PUSH1 0x2 EXP SUB DUP1 DUP5 AND SWAP3 AND SWAP1 PUSH32 0x8BE0079C531659141344CD1FD0A4F28419497F9722A3DAAFE3B4186F6B6457E0 SWAP1 PUSH1 0x0 SWAP1 LOG3 PUSH1 0x68 DUP1 SLOAD PUSH20 0xFFFFFFFFFFFFFFFFFFFFFFFFFFFFFFFFFFFFFFFF NOT AND PUSH1 0x1 PUSH1 0xA0 PUSH1 0x2 EXP SUB SWAP3 SWAP1 SWAP3 AND SWAP2 SWAP1 SWAP2 OR SWAP1 SSTORE JUMP JUMPDEST DUP3 DUP1 SLOAD PUSH1 0x1 DUP2 PUSH1 0x1 AND ISZERO PUSH2 0x100 MUL SUB AND PUSH1 0x2 SWAP1 DIV SWAP1 PUSH1 0x0 MSTORE PUSH1 0x20 PUSH1 0x0 KECCAK256 SWAP1 PUSH1 0x1F ADD PUSH1 0x20 SWAP1 DIV DUP2 ADD SWAP3 DUP3 PUSH1 0x1F LT PUSH2 0x14D6 JUMPI DUP1 MLOAD PUSH1 0xFF NOT AND DUP4 DUP1 ADD OR DUP6 SSTORE PUSH2 0x1503 JUMP JUMPDEST DUP3 DUP1 ADD PUSH1 0x1 ADD DUP6 SSTORE DUP3 ISZERO PUSH2 0x1503 JUMPI SWAP2 DUP3 ADD JUMPDEST DUP3 DUP2 GT ISZERO PUSH2 0x1503 JUMPI DUP3 MLOAD DUP3 SSTORE SWAP2 PUSH1 0x20 ADD SWAP2 SWAP1 PUSH1 0x1 ADD SWAP1 PUSH2 0x14E8 JUMP JUMPDEST POP PUSH2 0x126C SWAP3 PUSH2 0x675 SWAP3 POP SWAP1 JUMPDEST DUP1 DUP3 GT ISZERO PUSH2 0x126C JUMPI PUSH1 0x0 DUP2 SSTORE PUSH1 0x1 ADD PUSH2 0x150F JUMP STOP LOG1 PUSH6 0x627A7A723058 KECCAK256 0xf5 0xb5 NOT DUP2 0xc EQ 0xf5 SIGNEXTEND PUSH19 0x9ED6CA82437D6E95ACE911E1CD34BA208DBE6A 0xec SWAP10 CALLDATACOPY 0xc4 STOP 0x29 ",
  "sha1": "54330a18be975239fc4e7e881a1ec14afbe2f2a4",
  "source": "pragma solidity 0.4.24;\n\nimport \"deps/openzeppelin-eth/2.0.2/contracts/math/SafeMath.sol\";\nimport \"deps/openzeppelin-eth/2.0.2/contracts/ownership/Ownable.sol\";\nimport \"deps/openzeppelin-eth/2.0.2/contracts/token/ERC20/ERC20Detailed.sol\";\n\nimport \"./lib/SafeMathInt.sol\";\n\n/**\n * @title uFragments ERC20 token\n * @dev This is part of an implementation of the uFragments Ideal Money protocol.\n *      uFragments is a normal ERC20 token, but its supply can be adjusted by splitting and\n *      combining tokens proportionally across all wallets.\n *\n *      uFragment balances are internally represented with a hidden denomination, 'shares'.\n *      We support splitting the currency in expansion and combining the currency on contraction by\n *      changing the exchange rate between the hidden 'shares' and the public 'fragments'.\n */\n\ncontract UFragments is ERC20Detailed, Ownable {\n    // PLEASE READ BEFORE CHANGING ANY ACCOUNTING OR MATH\n    // Anytime there is division, there is a risk of numerical instability from rounding errors. In\n    // order to minimize this risk, we adhere to the following guidelines:\n    // 1) The conversion rate adopted is the number of shares that equals 1 fragment.\n    //    The inverse rate must not be used--TOTAL_SHARES is always the numerator and _totalSupply is\n    //    always the denominator. (i.e. If you want to convert shares to fragments instead of\n    //    multiplying by the inverse rate, you should divide by the normal rate)\n    // 2) Share balances converted into Fragments are always rounded down (truncated).\n    //\n    // We make the following guarantees:\n    // - If address 'A' transfers x Fragments to address 'B'. A's resulting external balance will\n    //   be decreased by precisely x Fragments, and B's external balance will be precisely\n    //   increased by x Fragments.\n    //\n    // We do not guarantee that the sum of all balances equals the result of calling totalSupply().\n    // This is because, for any conversion function 'f()' that has non-zero rounding error,\n    // f(x0) + f(x1) + ... + f(xn) is not always equal to f(x0 + x1 + ... xn).\n    using SafeMath for uint256;\n    using SafeMathInt for int256;\n\n    event LogRebase(uint256 indexed epoch, uint256 totalSupply);\n    event LogMonetaryPolicyUpdated(address monetaryPolicy);\n\n    // Used for authentication\n    address public monetaryPolicy;\n    uint256 public rebaseStartTime;\n\n    modifier onlyMonetaryPolicy() {\n        require(msg.sender == monetaryPolicy);\n        _;\n    }\n\n    bool private rebasePausedDeprecated;\n    bool private tokenPausedDeprecated;\n\n    modifier validRecipient(address to) {\n        require(to != address(0x0));\n        require(to != address(this));\n        _;\n    }\n\n    modifier onlyAfterRebaseStart() {\n        require(now >= rebaseStartTime);\n        _;\n    }\n\n    uint256 private constant DECIMALS = 9;\n    uint256 private constant SCALED_SHARES_EXTRA_DECIMALS = 9;\n    uint256 private constant MAX_UINT256 = ~uint256(0);\n    uint256 private constant MAX_UINT128 = ~uint128(0);\n    uint256 private constant MAX_FRAGMENTS_SUPPLY = 4000 * 10**DECIMALS;\n\n    // TOTAL_SHARES is a multiple of MAX_FRAGMENTS_SUPPLY so that _sharesPerFragment is an integer.\n    // Use the highest value that fits in a uint128 for sufficient granularity.\n    uint256 private constant TOTAL_SHARES = MAX_UINT256 - (MAX_UINT256 % MAX_FRAGMENTS_SUPPLY);\n\n    // MAX_SUPPLY = maximum integer < (sqrt(4*TOTAL_SHARES + 1) - 1) / 2\n    uint256 private constant MAX_SUPPLY = MAX_UINT128;\n\n    uint256 private _totalSupply;\n    uint256 public _sharesPerFragment;\n    uint256 public _initialSharesPerFragment;\n    mapping(address => uint256) private _shareBalances;\n\n    // This is denominated in Fragments, because the shares-fragments conversion might change before\n    // it's fully paid.\n    mapping(address => mapping(address => uint256)) private _allowedFragments;\n\n    /**\n     * @param monetaryPolicy_ The address of the monetary policy contract to use for authentication.\n     */\n    function setMonetaryPolicy(address monetaryPolicy_) external onlyOwner {\n        monetaryPolicy = monetaryPolicy_;\n        emit LogMonetaryPolicyUpdated(monetaryPolicy_);\n    }\n\n    /**\n     * @dev Notifies Fragments contract about a new rebase cycle.\n     * @param supplyDelta The number of new fragment tokens to add into circulation via expansion.\n     * @return The total number of fragments after the supply adjustment.\n     */\n    function rebase(uint256 epoch, int256 supplyDelta) external onlyMonetaryPolicy onlyAfterRebaseStart returns (uint256) {\n        if (supplyDelta == 0) {\n            emit LogRebase(epoch, _totalSupply);\n            return _totalSupply;\n        }\n\n        if (supplyDelta < 0) {\n            _totalSupply = _totalSupply.sub(uint256(supplyDelta.abs()));\n        } else {\n            _totalSupply = _totalSupply.add(uint256(supplyDelta));\n        }\n\n        if (_totalSupply > MAX_SUPPLY) {\n            _totalSupply = MAX_SUPPLY;\n        }\n\n        _sharesPerFragment = TOTAL_SHARES.div(_totalSupply);\n\n        // From this point forward, _sharesPerFragment is taken as the source of truth.\n        // We recalculate a new _totalSupply to be in agreement with the _sharesPerFragment\n        // conversion rate.\n        // This means our applied supplyDelta can deviate from the requested supplyDelta,\n        // but this deviation is guaranteed to be < (_totalSupply^2)/(TOTAL_SHARES - _totalSupply).\n        //\n        // In the case of _totalSupply <= MAX_UINT128 (our current supply cap), this\n        // deviation is guaranteed to be < 1, so we can omit this step. If the supply cap is\n        // ever increased, it must be re-included.\n        // NB: Digg will likely never reach the total supply cap as the total supply of BTC is\n        // currently 21 million and MAX_UINT128 is many orders of magnitude greater.\n        // _totalSupply = TOTAL_SHARES.div(_sharesPerFragment)\n\n        emit LogRebase(epoch, _totalSupply);\n        return _totalSupply;\n    }\n\n    function initialize(address owner_) public initializer {\n        ERC20Detailed.initialize(\"Digg\", \"DIGG\", uint8(DECIMALS));\n        Ownable.initialize(owner_);\n\n        rebaseStartTime = 0;\n        rebasePausedDeprecated = false;\n        tokenPausedDeprecated = false;\n\n        _totalSupply = MAX_FRAGMENTS_SUPPLY;\n        _shareBalances[owner_] = TOTAL_SHARES;\n        _sharesPerFragment = TOTAL_SHARES.div(_totalSupply);\n        _initialSharesPerFragment = TOTAL_SHARES.div(_totalSupply);\n\n        emit Transfer(address(0x0), owner_, _totalSupply);\n    }\n\n    /**\n     * @return The total number of fragments.\n     */\n    function totalSupply() public view returns (uint256) {\n        return _totalSupply;\n    }\n\n    /**\n     * @return The total number of underlying shares.\n     */\n    function totalShares() public view returns (uint256) {\n        return TOTAL_SHARES;\n    }\n\n    /**\n     * @param who The address to query.\n     * @return The balance of the specified address.\n     */\n    function balanceOf(address who) public view returns (uint256) {\n        return _shareBalances[who].div(_sharesPerFragment);\n    }\n\n    /**\n     * @param who The address to query.\n     * @return The underlying shares of the specified address.\n     */\n    function sharesOf(address who) public view returns (uint256) {\n        return _shareBalances[who];\n    }\n\n    /**\n     * @param fragments Fragment value to convert.\n     * @return The underlying share value of the specified fragment amount.\n     */\n    function fragmentsToShares(uint256 fragments) public view returns (uint256) {\n        return fragments.mul(_sharesPerFragment);\n    }\n\n    /**\n     * @param shares Share value to convert.\n     * @return The current fragment value of the specified underlying share amount.\n     */\n    function sharesToFragments(uint256 shares) public view returns (uint256) {\n        if (shares == 0) {\n            return 0;\n        }\n        return shares.div(_sharesPerFragment);\n    }\n\n    /// @dev Scaled Shares are a user-friendly representation of shares\n    function scaledSharesToShares(uint256 fragments) public view returns (uint256) {\n        return fragments.mul(_initialSharesPerFragment).mul(10**SCALED_SHARES_EXTRA_DECIMALS);\n    }\n\n    function sharesToScaledShares(uint256 shares) public view returns (uint256) {\n        if (shares == 0) {\n            return 0;\n        }\n        return shares.div(_initialSharesPerFragment).mul(10**SCALED_SHARES_EXTRA_DECIMALS);\n    }\n\n    /**\n     * @dev Transfer tokens to a specified address.\n     * @param to The address to transfer to.\n     * @param value The amount to be transferred.\n     * @return True on success, false otherwise.\n     */\n    function transfer(address to, uint256 value) public validRecipient(to) returns (bool) {\n        uint256 shareValue = value.mul(_sharesPerFragment);\n        _shareBalances[msg.sender] = _shareBalances[msg.sender].sub(shareValue);\n        _shareBalances[to] = _shareBalances[to].add(shareValue);\n        emit Transfer(msg.sender, to, value);\n        return true;\n    }\n\n    /**\n     * @dev Function to check the amount of tokens that an owner has allowed to a spender.\n     * @param owner_ The address which owns the funds.\n     * @param spender The address which will spend the funds.\n     * @return The number of tokens still available for the spender.\n     */\n    function allowance(address owner_, address spender) public view returns (uint256) {\n        return _allowedFragments[owner_][spender];\n    }\n\n    /**\n     * @dev Transfer tokens from one address to another.\n     * @param from The address you want to send tokens from.\n     * @param to The address you want to transfer to.\n     * @param value The amount of tokens to be transferred.\n     */\n    function transferFrom(\n        address from,\n        address to,\n        uint256 value\n    ) public validRecipient(to) returns (bool) {\n        _allowedFragments[from][msg.sender] = _allowedFragments[from][msg.sender].sub(value);\n\n        uint256 shareValue = value.mul(_sharesPerFragment);\n        _shareBalances[from] = _shareBalances[from].sub(shareValue);\n        _shareBalances[to] = _shareBalances[to].add(shareValue);\n        emit Transfer(from, to, value);\n\n        return true;\n    }\n\n    /**\n     * @dev Approve the passed address to spend the specified amount of tokens on behalf of\n     * msg.sender. This method is included for ERC20 compatibility.\n     * increaseAllowance and decreaseAllowance should be used instead.\n     * Changing an allowance with this method brings the risk that someone may transfer both\n     * the old and the new allowance - if they are both greater than zero - if a transfer\n     * transaction is mined before the later approve() call is mined.\n     *\n     * @param spender The address which will spend the funds.\n     * @param value The amount of tokens to be spent.\n     */\n    function approve(address spender, uint256 value) public returns (bool) {\n        _allowedFragments[msg.sender][spender] = value;\n        emit Approval(msg.sender, spender, value);\n        return true;\n    }\n\n    /**\n     * @dev Increase the amount of tokens that an owner has allowed to a spender.\n     * This method should be used instead of approve() to avoid the double approval vulnerability\n     * described above.\n     * @param spender The address which will spend the funds.\n     * @param addedValue The amount of tokens to increase the allowance by.\n     */\n    function increaseAllowance(address spender, uint256 addedValue) public returns (bool) {\n        _allowedFragments[msg.sender][spender] = _allowedFragments[msg.sender][spender].add(addedValue);\n        emit Approval(msg.sender, spender, _allowedFragments[msg.sender][spender]);\n        return true;\n    }\n\n    /**\n     * @dev Decrease the amount of tokens that an owner has allowed to a spender.\n     *\n     * @param spender The address which will spend the funds.\n     * @param subtractedValue The amount of tokens to decrease the allowance by.\n     */\n    function decreaseAllowance(address spender, uint256 subtractedValue) public returns (bool) {\n        uint256 oldValue = _allowedFragments[msg.sender][spender];\n        if (subtractedValue >= oldValue) {\n            _allowedFragments[msg.sender][spender] = 0;\n        } else {\n            _allowedFragments[msg.sender][spender] = oldValue.sub(subtractedValue);\n        }\n        emit Approval(msg.sender, spender, _allowedFragments[msg.sender][spender]);\n        return true;\n    }\n}\n",
  "sourcePath": "contracts/digg-core/UFragments.sol",
  "type": "contract"
}